:020000040800F2
:10000000880A00208901000855060008210600081A
:1000100051060008AD0300086F170008000000003B
:10002000000000000000000000000000AD0D00080E
:10003000DD03000800000000690C0008A10F0008A3
:10004000A3010008A3010008A3010008A301000800
:10005000A3010008A3010008A3010008A3010008F0
:10006000A3010008A3010008A3010008A3010008E0
:10007000A3010008A3010008A3010008A3010008D0
:10008000A3010008A3010008A3010008A3010008C0
:10009000A3010008A3010008A3010008A3010008B0
:1000A000A3010008A3010008A3010008A3010008A0
:1000B000A301000805100008A3010008A30100081F
:1000C000A3010008A3010008A3010008A301000880
:1000D000A301000891140008A301000825150008D9
:1000E000A3010008A3010008A301000800F002F822
:1000F00000F03AF80AA090E8000C82448344AAF188
:100100000107DA4501D100F02FF8AFF2090EBAE885
:100110000F0013F0010F18BFFB1A43F0010318473B
:10012000EC3900000C3A0000103A24BF78C878C1BE
:10013000FAD8520724BF30C830C144BF04680C60ED
:10014000704700000023002400250026103A28BF35
:1001500078C1FBD8520728BF30C148BF0B60704739
:100160001FB51FBD10B510BD00F036F81146FFF7E2
:10017000F7FF01F015FB00F054F803B4FFF7F2FFAE
:1001800003BC00F057F800000948804709480047C1
:10019000FEE7FEE7FEE7FEE7FEE7FEE7FEE7FEE737
:1001A000FEE7FEE704480549054A064B7047000094
:1001B000A50F0008ED00000888040020880A002030
:1001C00088060020880600207047704770470000AE
:1001D00000487047280400207546FFF7F9FFAE4637
:1001E00005006946534620F00700854618B020B543
:1001F000FFF7D8FFBDE820404FF000064FF00007A2
:100200004FF000084FF0000B21F00701AC46ACE8BE
:10021000C009ACE8C009ACE8C009ACE8C0098D462B
:10022000704710B50446AFF300802046BDE810408B
:10023000FFF7A3BF01491820ABBEFEE7260002006E
:100240007047000010B5084800F0B2FD064800F005
:10025000CDFD502000F0C3F8034800F0E9FD02484E
:1002600000F004FE10BD00000000B44200B587B0ED
:100270000121042000F020FD0121880300F01CFD75
:100280000121082000F018FD0121880400F004FD80
:1002900018208DF81B004FF40070ADF818000320F3
:1002A0008DF81A0006A93D4800F02AF948208DF87B
:1002B0001B004FF48060ADF8180003208DF81A0081
:1002C00006A9364800F01CF918208DF81B004FF4E1
:1002D0008060ADF8180003208DF81A0006A9304898
:1002E00000F00EF948208DF81B004FF40060ADF8C7
:1002F000180003208DF81A0006A9294800F000F91B
:100300004FF4165002900020ADF814000C20ADF808
:1003100012000020ADF81000ADF80E00ADF80C0092
:1003200002A9204801F0B2F902A91F4801F0AEF974
:10033000012240F225511B4801F083F9012240F2CD
:100340002551194801F07DF94FF4A06000F0BCF987
:1003500025208DF8040001208DF807008DF8050098
:100360008DF8060001A800F077F927208DF8040029
:1003700001208DF8070002208DF8050001208DF87E
:10038000060001A800F068F90121064801F023F9F0
:100390000121054801F01FF907B000BD0008014028
:1003A000000C0140003801400048004000BFFEE75B
:1003B00010B5002000F01AFD022000F01CF8062005
:1003C0000149088010BD00002200002010B502483D
:1003D00000F00CFD10BD00000000B442704700B5F5
:1003E000034603E04FF47A7000F011F8181EA3F1F1
:1003F0000103F7D100BD10B5044603E04FF47A7055
:10040000FFF7EDFF201EA4F10104F7D110BD00EBB2
:10041000C001C9004FF0E022516100219161052126
:10042000116100BF4FF0E021096901F4803100291A
:10043000F8D004214FF0E0221161704708B52A4836
:10044000008860B900F04AF9284840238022002142
:100450000090084600F066FA00F0E2FA42E0224816
:10046000008801280CD100F039F92148402380226E
:1004700000210090084600F055FA00F0D1FA31E072
:100480001948008802280CD100F028F919484023A7
:10049000802200210090084600F044FA00F0C0FAE3
:1004A00020E01148008803280CD100F017F9124809
:1004B0004023802200210090084600F033FA00F02B
:1004C000AFFA0FE00848008804280BD100F006F9C5
:1004D0000A484023802200210090084600F022FABA
:1004E00000F09EFA08BD0000240000200C27000840
:1004F0000C2F00080C2B00080C3300080C370008E8
:100500002DE9F041024600250026002000230024AA
:10051000002791F803C00CF00F0591F803C00CF010
:10052000100CBCF1000F03D091F802C04CEA050595
:1005300091F800C0BCF1000F31D0146800202BE00E
:100540004FF0010C0CFA00F3B1F800C00CEA0306FE
:100550009E4220D183004FF00F0C0CFA03F7BC43EE
:1005600005FA03FC4CEA040491F803C0BCF1280F1F
:1005700006D14FF0010C0CFA00FCC2F814C00AE0DE
:1005800091F803C0BCF1480F05D14FF0010C0CFAF3
:1005900000FCC2F810C0401C0828D1D31460B1F888
:1005A00000C0BCF1FF0F34DD546800202EE000F1E4
:1005B000080C4FF0010808FA0CF3B1F800C00CEA7F
:1005C00003069E4221D183004FF00F0C0CFA03F773
:1005D000BC4305FA03FC4CEA040491F803C0BCF1E7
:1005E000280F05D100F1080C08FA0CF8C2F81480A5
:1005F00091F803C0BCF1480F07D100F1080C4FF08F
:10060000010808FA0CF8C2F81080401C0828CED364
:100610005460BDE8F0810AB1016100E041617047BA
:1006200000BFFEE710B5002000F0C2FB0220FFF77C
:10063000E2FE05200149088010BD000022000020D4
:1006400010B5024800F0B4FB10BD00000000B44239
:1006500000BFFEE77047000070B5002100230F22A5
:10066000C47804B3154C246804F4E064C4F5E06471
:10067000210AC1F10403CA40447804FA03F18478E2
:100680001440214309010E4C0678A155047804F06A
:100690001F050124AC4005786D11AD0005F1E02582
:1006A000C5F8004109E0047804F01F050124AC40BE
:1006B000044D0678761145F8264070BD0CED00E03B
:1006C00000E400E080E100E002490143024A1160D9
:1006D000704700000000FA050CED00E000200CE07F
:1006E000002106E00022064B03EBC0135A544A1CBB
:1006F000D1B28029F6DB421CD0B20828F0DB70476B
:10070000280000202DE9F04304460D4616461F46FA
:10071000284638E0224631E0002A2DDB7F2A2BDCF8
:10072000002829DB3F2827DC4FEAE07C00EB5C7CDB
:100730004FEAEC0CDFF8588008EBCC1C1CF802C028
:1007400003464FEAE07800EB58784FEAE808A0EB60
:10075000C8094FF0010808FA09F82CEA080C01460C
:100760004FEAE07800EB58784FEAE808DFF820908D
:1007700009EBC81808F802C0511C0AB2A11991422D
:10078000CADC411C08B2E9198142C3DCBDE8F08330
:100790002800002038B5002406E0002500E06D1C8C
:1007A000B5F57A7FFBD3641CB4F57A7FF5D30121CC
:1007B000082000F081FA14208DF8030003208DF842
:1007C00002004FF48070ADF8000069460848FFF75A
:1007D00097FE4FF40070ADF8000069460448FFF73B
:1007E0008FFE012000F030F9012000F039F938BD0A
:1007F000000C014070B50546002411E08021214124
:10080000294009B1012100E00021084600F028F943
:10081000012000F019F9002000F016F9601CC4B2A4
:10082000082CEBDB012000F00FF9002000F00CF9A0
:1008300070BD10B5012000F013F9012000F004F99B
:10084000002000F00DF9002000F0FEF810BD10B5FA
:10085000002000F005F9012000F0F6F8012000F07A
:10086000FFF810BD10B5FFF795FFAE2000F004F9BA
:10087000D52000F001F9802000F0FEF8A82000F05B
:10088000FBF83F2000F0F8F8D32000F0F5F8002046
:1008900000F0F2F8402000F0EFF8A12000F0ECF8B2
:1008A000C82000F0E9F8DA2000F0E6F8122000F0A5
:1008B000E3F8812000F0E0F8CF2000F0DDF8D92047
:1008C00000F0DAF8F12000F0D7F8DB2000F0D4F8DF
:1008D000302000F0D1F8A42000F0CEF8A62000F0DF
:1008E000CBF88D2000F0C8F8142000F0C5F8AF2038
:1008F00000F0C2F8FFF7F2FE00F092F810BD70B5FC
:1009000005460C46A01CC4B245F0B00000F0B4F897
:10091000102141EA141000F0AFF804F00F0000F0CD
:10092000ABF870BD2DE9FF4F80460E469146DDF8CD
:1009300034B0002500244A4631464046039BFFF769
:10094000E1FE00BF5EE0002558E008EB050000284E
:1009500052DB08EB05007F284EDC3046F11706EB32
:100960005171C9100FB2F11706EB5171C910A6EB06
:10097000C10A002E05DA781E07B20AF108000FFA44
:1009800080FA3819002817DB3819072814DC3819C1
:10099000224901EBC01008EB0501405C04FB095142
:1009A0001BF8011001FA0AF1084339191B4A02EB3E
:1009B000C11108EB050288543819401C00281BDBC4
:1009C0003819401C072817DC3819401C134901EB63
:1009D000C01008EB0501405C04FB09511BF8011035
:1009E000CAF10802114108433919491C0B4A02EBAC
:1009F000C11108EB05028854681CC5B24D45A4DB43
:100A0000601CC4B20399481EC11700EB517101224A
:100A100002EBE101A14296DCBDE8FF8F2800002037
:100A200010B500240BE000212046FFF768FF0549C0
:100A300001EBC410802100F02FF8601CC4B2082C18
:100A4000F1DB10BD2800002010B5044622464FF40B
:100A500080710248FFF7DFFD10BD0000000C01406F
:100A600010B5044622464FF400710248FFF7D3FD4B
:100A700010BD0000000C014010B50446FFF7D9FE80
:100A80007820FFF7B7FE0020FFF7B4FE2046FFF7FF
:100A9000B1FEFFF7DCFE10BD70B505460E46FFF750
:100AA000C8FE7820FFF7A6FE4020FFF7A3FE002433
:100AB00004E0285DFFF79EFE601CC4B2B442F8DB80
:100AC000FFF7C5FE70BD000000B589B001210846E2
:100AD00000F0E2F80121022000F0DEF801210420FC
:100AE00000F0EAF80121082000F0E6F818208DF85F
:100AF00023004F20ADF8200003208DF8220008A924
:100B00003C48FFF7FDFC18208DF823000320ADF8CA
:100B100020008DF8220008A93748FFF7F1FC4FF0BC
:100B2000804000F01CFB354800F019FB0020ADF8B8
:100B30001A00ADF8160044F61F60ADF81800472003
:100B4000ADF8140000208DF81C0005A94FF080407E
:100B500000F04CFC05A9294800F048FC1D208DF848
:100B6000100001208DF8130000208DF811008DF881
:100B7000120004A8FFF770FD012211461F4800F083
:100B8000E5FA684600F01EFC6020ADF80000002089
:100B9000ADF808000120ADF802000020ADF8060015
:100BA00069464FF0804000F0E1FA69464FF080401E
:100BB00000F028FB69464FF0804000F075FB694665
:100BC0004FF0804000F0C0FB69460C4800F0CEFAC0
:100BD00069460A4800F068FB6946084800F0B4FB23
:100BE0000121880700F095FA0121044800F091FAEC
:100BF00009B000BD00080140000C014000040040A5
:100C000010B504462146024800F0EAFB10BD000082
:100C10000004004010B504462146024800F0E2FB03
:100C200010BD00000004004010B5044621464FF0FE
:100C3000804000F0D1FB10BD10B5044621464FF0B6
:100C4000804000F0CBFB10BD10B5044621464FF0AC
:100C5000804000F0C5FB10BD10B5044621464FF0A2
:100C6000804000F0BFFB10BD7047000010B50020B1
:100C700000F0FCF80220FFF7BEFB082001490880C5
:100C800010BD00002200002010B5024800F0EEF870
:100C900010BD00000000B44229B1064AD2690243E7
:100CA000044BDA6104E0034AD2698243014BDA6102
:100CB000704700000010024029B1064A92690243C1
:100CC000044B9A6104E0034A92698243014B9A61A2
:100CD000704700000010024030B5002100220024BF
:100CE00000232D4D6D6805F00C0121B1042905D0BC
:100CF000082923D105E0294D056022E0274D056034
:100D00001FE0254D6D6805F47012234D6D6805F4E4
:100D10008034022505EB92421CB9214D55430560F4
:100D20000BE01D4D6D6805F400351DB11C4D55439C
:100D3000056002E0194D5543056002E0174D05605E
:100D400000BF00BF144D6D6805F0F0010909154D95
:100D50006B5C0568DD4045600F4D6D6805F4E06132
:100D6000090A104D6B5C4568DD4085600A4D6D6871
:100D700005F46051C90A0B4D6B5C4568DD40C560E8
:100D8000054D6D6805F44041890B074D6B5CC568E6
:100D9000B5FBF3F5056130BD0010024000127A008A
:100DA00000093D00000000201000002070470000F6
:100DB0002DE9F04104460A49204600F0E7FD80464F
:100DC000084900F0C5FE0746074900F07DFD0646CC
:100DD00000F09EFE85B22846FFF726FFBDE8F081B1
:100DE000000034430000FA440000FA432DE9F047C4
:100DF00004460C49204600F077FF8146094900F07F
:100E0000C5FD8046084900F0A3FE0746074900F0EB
:100E10005BFD064600F07CFE85B22846FFF70CFF1E
:100E2000BDE8F087000034430000FA440000FA43B4
:100E30002DE9F04104460A49204600F0A7FD80460E
:100E4000084900F085FE0746074900F03DFD0646CB
:100E500000F05EFE85B22846FFF7F6FEBDE8F081A1
:100E6000000034430000FA440000FA432DE9F04743
:100E700004460C49204600F037FF8146094900F03E
:100E800085FD8046084900F063FE0746074900F0EB
:100E90001BFD064600F03CFE85B22846FFF7DCFE4F
:100EA000BDE8F087000034430000FA440000FA4334
:100EB00010B5FFF709FE10BD10B500F001F810BD28
:100EC0000CB50020019000903348006840F4803059
:100ED0003149086000BF3048006800F400300090DD
:100EE0000198401C0190009818B90198B0F5A06FC6
:100EF000F1D12948006800F4003010B101200090C1
:100F000001E0002000900098012843D123480068A8
:100F100040F01000214908600846006820F00300F6
:100F200008600846006840F0020008601A484068FF
:100F3000194948600846406848600846406840F4DF
:100F4000806048600846406820F47C10486008468D
:100F5000406840F4E81048600846006840F080703F
:100F6000086000BF0C48006800F000700028F9D04D
:100F70000948406820F00300074948600846406877
:100F800040F00200486000BF0348406800F00C00D9
:100F90000828F9D10CBD00000010024000200240DA
:100FA0007047000010B51348006840F00100114977
:100FB000086008464068104908400E4948600846E5
:100FC00000680E4908400B4908600846006820F494
:100FD000802008600846406820F4FE0048604FF416
:100FE0001F008860FFF768FF4FF000600449086049
:100FF00010BD0000001002400000FFF8FFFFF6FEE9
:1010000008ED00E010B501213A4800F08EF8012803
:101010006ED13948008801280BD13848008840B982
:1010200044F62060FFF7ECFD44F62060FFF7F2FD88
:101030005AE03148008801284DD130480088012805
:1010400049D12F480088012816D12E4800886430E5
:101050002C49088008460088FFF7D2FD29480088FF
:10106000FFF7D8FD2748008844F6206188423BD12D
:1010700002202349088037E021480088022813D144
:101080002048008864381F49088008460088FFF718
:10109000B7FD1C480088FFF7BDFD1A48008818BB43
:1010A0000320174908801FE01548008803281BD13A
:1010B0001548008800F57A701349088008460088B2
:1010C00044F6206188420FD101200D49088000209C
:1010D0000D49088008E00848008828B90020FFF77B
:1010E0008FFD0020FFF796FD0121024800F00EF869
:1010F00010BD0000000400401C0000201E00002065
:1011000018000020160000201A000020CA430282A6
:10111000704721B1028842F00102028004E0028897
:101120004FF6FE731A400280704730B50246002029
:1011300000230024158A05EA0103958905EA0104C4
:1011400013B10CB1012000E0002030BD1AB1838939
:101150000B43838102E083898B438381704701893C
:101160004FF6F872114001817047000070B50024FD
:1011700000220023058C4FF6FE7635400584028C54
:101180008388048B4FF68F752C40B51E2C400D883C
:101190002C43751E2A400D892A434D882A43144D3D
:1011A000A8420BD0134DA84208D0134DA84205D039
:1011B000124DA84202D0124DA84213D14FF6F77536
:1011C0002A404D892A434FF6FB752A408D882A43D1
:1011D0004FF6FF652B404FF6FF552B408D892B4373
:1011E000CD892B4383800483CD888586028470BD9E
:1011F000002C014000340140004001400044014007
:101200000048014070B5002400220023058C4FF6F1
:10121000EF7635400584028C8388048B48F6FF7591
:101220002C404FF6FF452C400D884FF6FF7606EA1E
:1012300005252C434FF6DF752A400D8906EA051572
:101240002A434D8806EA05152A43154DA84202D0C7
:10125000144DA8421DD14FF67F752A404D894FF697
:10126000FF7606EA05152A434FF6BF752A408D889A
:1012700006EA05152A434FF6FF352B404FF2FF755E
:101280002B408D8906EA85052B43CD8906EA850525
:101290002B4383800483CD880587028470BD0000C2
:1012A000002C01400034014070B5002400220023CE
:1012B000058C4FF6FF6635400584028C8388848B4D
:1012C0004FF68F752C404FF6FC752C400D882C4343
:1012D0004FF6FF552A400D894FF6FF7606EA0525A1
:1012E0002A434D8806EA05252A43154DA84202D017
:1012F000144DA8421DD14FF2FF752A404D894FF67B
:10130000FF7606EA05252A434FF6FF352A408D88E9
:1013100006EA05252A434EF6FF752B404DF6FF756C
:101320002B408D8906EA05152B43CD8906EA051564
:101330002B4383808483CD888587028470BD000021
:10134000002C01400034014070B50022002300242D
:10135000058C4EF6FF7635400584038C8488828B9D
:1013600048F6FF752A404FF6FF452A400D884FF694
:10137000FF7606EA05252A434DF6FF752B400D89B9
:1013800006EA05352B434D8806EA05352B430B4D00
:10139000A84202D00A4DA84208D14BF6FF752C4056
:1013A0008D894FF6FF7606EA85152C43848082836B
:1013B000CD88A0F84050038470BD0000002C01408F
:1013C000003401400021018041808180C180018181
:1013D00041818181C1817047818670470187704753
:1013E00081877047A0F840107047000000220288F3
:1013F0001D4B98420ED01D4B98420BD0B0F1804F40
:1014000008D01B4B984205D01A4B984202D01A4B79
:10141000984204D14FF68F731A404B881A43174BEA
:10142000984207D0164B984204D04FF6FF431A401B
:10143000CB881A4302808B8883850B8803850A4BEF
:1014400098420BD0094B984208D00E4B984205D0D9
:101450000D4B984202D00D4B984201D10B7A038676
:101460000123838270470000002C014000340140BA
:101470000004004000080040000C00400010004044
:101480000014004000400140004401400048014079
:1014900010B540F225511F4800F0A9F8012838D1B5
:1014A00000201D4908801B4800F05CF9292808D15C
:1014B00000201A490880FEF7C1FF00201849088063
:1014C00022E0144800F04EF9302803D101201449DD
:1014D000088019E00F4800F045F9312803D10220B7
:1014E0000F49088010E00B4800F03CF9322803D186
:1014F00003200B49088007E0064800F033F9332841
:1015000002D104200649088040F22551014800F02C
:1015100053F810BD003801402000002024000020B6
:101520002200002010B540F225511F4800F05FF85E
:10153000012837D11D4908801B4800F013F92928DC
:1015400008D100201A490880FEF778FF00201949C9
:10155000088022E0144800F005F9302803D101206A
:101560001449088019E0104800F0FCF8312803D134
:1015700002201049088010E00B4800F0F3F83228F0
:1015800003D103200B49088007E0074800F0EAF880
:10159000332802D104200749088040F2255102482F
:1015A00000F00AF810BD00000048004020000020B4
:1015B000240000202200002010B50022002340F665
:1015C0006A14A14200D100BF0A1201249440A3B2C0
:1015D000DC43048010BD21B1828942F40052828133
:1015E00004E082894DF6FF731A408281704770B51E
:1015F0000246002400230025002040F66A16B1426E
:1016000000D100BFC1F3421501F01F03012606FA05
:1016100003F3012D02D19689334006E0022D02D159
:10162000168A334001E0968A33400C12012606FAEE
:1016300004F41688344013B10CB1012000E00020FE
:1016400070BDF0B50346002400260025002040F6BA
:101650006A17B94200D100BF1846C1F3421401F025
:101660001F06012707FA06F5012C01D10C3004E012
:10167000022C01D1103000E014301AB107682F435A
:10168000076002E00768AF430760F0BD2DE9F0474F
:1016900086B005460E460024A24600BFA14600279C
:1016A000B08900B100BF2F462C8A4CF6FF70044071
:1016B000F08804432C82AC894EF6F3100440B088C5
:1016C00031890843718908430443AC81AC8A4FF6E1
:1016D000FF400440B0890443AC8201A8FFF7FCFA44
:1016E0001F48874202D1DDF810A001E0DDF80CA010
:1016F000A88900F4004040B10AEBCA0000EB0A10D0
:1017000031684900B0FBF1F807E00AEBCA0000EBD2
:101710000A1031688900B0FBF1F86420B8FBF0F0E2
:1017200004012009642101FB1089A88900F400400C
:1017300040B1322000EBC900B0FBF1F000F007002F
:10174000044308E0322000EB09106421B0FBF1F003
:1017500000F00F0004432C8106B0BDE8F0870000C4
:101760000038014001468888C0F30800704700BF78
:10177000FEE7000010B50020FFF75AFB0220FEF73D
:101780003AFE07200149088010BD00002200002019
:1017900010B50248FFF74CFB10BD00000000B4423A
:1017A00008B5FFF785FBFFF75DF8FEF75FFD4348DF
:1017B00040238022002100900846FFF7B3F8FFF78E
:1017C0002FF97AE03E48008810B9FEF73BFD74E03F
:1017D0003B480088012806D13A490880FEF72EFED2
:1017E000FEF720FF69E036480088022806D1354917
:1017F0000880FEF723FEFEF7DBFD5EE03048008840
:10180000032806D12F490880FEF718FEFFF7B2FF24
:1018100053E02B480088042806D12A490880FEF7A7
:101820000DFEFFF723FA48E025480088052807D178
:10183000FEF706FF002023490880FEF7FFFD3CE08D
:101840001F480088062807D1FEF7C0FD00201D496B
:101850000880FEF7F3FD30E019480088072807D11B
:10186000FFF796FF002017490880FEF7E7FD24E008
:1018700013480088082807D1FFF706FA002011490D
:101880000880FEF7DBFD18E00D480088092814D019
:101890000B4800880A2810D0094800880B280CD073
:1018A000074800880C2808D0054800880D2804D077
:1018B000034800880E2800D000BF83E70C270008EB
:1018C000220000202400002090EA010F48BF81F090
:1018D000004100F11A82421A3CBF801A89184FEA6F
:1018E000D0524FF07F4C1CEA410FA2EBD15318BFEE
:1018F0009CEA026F00F03B804FF0004C4CEA002065
:101900004CEA012121FA03FC10EB0C0C1ED202F16F
:10191000FF325FEA1C2040EBC25038BF70471CF01A
:101920007F0F4FEA400C18BFBCF17F4F38BF7047A4
:10193000C3F12003994008BF20F00100BCF17F4FA4
:1019400038BF7047A0F1C04000F0C9B94FEA3C0071
:10195000000A40EBC25028BF1CF0FF0F4FEA400CBA
:10196000E6D018BFBCF17F4F38BF7047EAE79CEA6A
:10197000026F05D010EA5C0F08BF00F0004070470E
:1019800010B500F066F900BF64FBBE3E4FF47F0C5B
:101990001CEAD0121EBF1CEAD11392EA0C0F93EA84
:1019A0000C0F00F0858090EA010F48BF42F480726E
:1019B00040F4000C41F400002CF07F4120F07F4007
:1019C00000B58142A2EB03020FF2081CACEB504EB3
:1019D000C0F100009EF800E04FEA4E0E00FB0EFC46
:1019E00038BF49004FEA2C1C02F5FA020CFB0EF33B
:1019F0004FEACE1E4FEA112C4FEAC1210EEB635E77
:101A000042EB22420EFB0CFC4FEA1C5300FB03117D
:101A10004FEA112C4FEA01310EFB0CFC4FEADC4C73
:101A200000FB0C11C14228BF09184CEB03335DF8D1
:101A300004EB10EB410143EBC250B2F57C0F38BF11
:101A4000704729D512F0F00F1CBF00F1C04000F024
:101A500000407047008182838485868788898B8CCB
:101A60008D8E8F919293959697999A9C9D9FA0A207
:101A7000A3A5A7A8AAACAEB0B2B3B5B7B9BCBEC057
:101A8000C2C5C7C9CCCED1D4D7D9DCDFE2E6E9ECF8
:101A9000F0F3F7FAFE0000004FEA400C0CF1807CF6
:101AA000BCF17E4F28BF7047B0F1C04000F017B9BD
:101AB00090EA010F0CEAD11348BF42F480726245EC
:101AC00038BF634507D213F47F0F16D080EA0100B8
:101AD00000F00040704710B500F0BBF8097EFC3EF6
:101AE00000F005B880EA010000F00040704780EA8D
:101AF000010000F0004000F0F2B812F47F0F04BFC4
:101B00000248704780EA010000F0E9B80000C07F99
:101B1000C10DD1F19E0206DB4FEA002343F00043E2
:101B200023FA02F07047004207D54FEA4001B1F1B5
:101B3000FE4F02D24FF00000704710B500F089F858
:101B400049922480002070476FEA2000704700000F
:101B50004FF47F0C1CEAD0121EBF1CEAD11392EA8C
:101B60000C0F93EA0C0F00F0478090EA010F48BF7A
:101B700042F480724FF0004C4CEA00204CEA012104
:101B800002EB0302A0FB0113A2F50002002918BF1B
:101B900043F001035B0028BF4FEA330342EB2242CC
:101BA0005FEA132C4CEBC2502EBFBCEB436FB2F577
:101BB0007C0F70474FEA036CBCF1004F08BF20F068
:101BC0000100B2F57C0F38BF70470BD582F0FF02E1
:101BD00012F5803FC8BF704700F1C040D8BF00F089
:101BE0000040704700F5000C5FEA4C0C48BF70479E
:101BF000B0F1C04000F073B890EA010F0CEAD113C5
:101C000048BF42F48072624538BF634504D280EA1F
:101C1000010000F00040704710B500F01AF800BF56
:101C20008900013E00F007B800F009B85FEA410CF6
:101C30005FEA1C6C08D080EA010000F050B85FEA4F
:101C4000400C5FEA1C6CF6D14FF00040A0F580001C
:101C500070470EF1020E2EF0030E5EF8044B244284
:101C600004D44FEA4102B2F17F4F11D84FEA40034A
:101C7000B3F17F4F0CD80ED14FEAD07CB2F17F4F39
:101C80000CEB4C0C0CF1020C08BF4CEBD17C04E0CB
:101C90004FF0080C01E04FEAD17C0CEB4C0324FA26
:101CA00003F404F00704B4F1040C06D20EEB840C28
:101CB000BDE810404CF0010C6047DFE80CF007086D
:101CC00002024FF00040A0F5800010BD084642001F
:101CD00018BFD2F1807288BF00F0004010BDFF2114
:101CE00041EAD050C005704780F0004090EA010FF3
:101CF0007FF5F1AD81F0004100F007B890EA010FE7
:101D000048BF81F000413FF5E6AD421A04D882F0A9
:101D10000042A0EB020011444FEAD0524FF07F4C3A
:101D20001CEA410FA2EBD15318BF9CEA026F4AD0C4
:101D30004FF0004C4CEA00204CEA012121FA03FC50
:101D4000B0EB0C0C0FD412F0FE0F36D05FEA4C0053
:101D50001DD5001240EBC25038BF70471CF03F0F3A
:101D600018BF70470BE0A2F101025FEA1C2040EBB4
:101D7000C25038BF70471CF07F0F18BF7047C3F1C7
:101D80002003994014BF401E20F0010070478008D6
:101D90004FEA122308BF7047B0FA80FCA2EB0C0296
:101DA000CCF1280C60FA0CF093EA122F04BF00EB80
:101DB000C25070474FEAC3707047130A5FEADC10E5
:101DC00008BF7047F6E79CEA026F04D010EA5C0F88
:101DD00008BF0020704710B5FFF73BFF40DFF63E1D
:101DE00081F000407047000000000000000000008B
:101DF000000000000000000000F8000000000000EB
:101E000000333000000000160E00160E0000000027
:101E100000000000000040C07840C0784000043F4F
:101E200004043F040400007088FC0830000000181F
:101E300020FF211E0000F008F000E0180000002143
:101E40001C031E211E0000F00888700000001E21E7
:101E5000232419272110000000160E0000000000A6
:101E6000000000000000000000E018040200000074
:101E700000071820400000020418E00000000040A5
:101E8000201807000000404080F08040400002021F
:101E9000010F01020200000000F00000000001013B
:101EA000011F01010100000000000000000000B05F
:101EB00070000000000000000000000000000001B1
:101EC00001010101010100000000000000000030DC
:101ED0003000000000000000000080601804006076
:101EE00018060100000000E010080810E000000FD4
:101EF000102020100F00001010F80000000000203B
:101F0000203F202000000070080808887000003082
:101F1000282422213000003008888848300000182A
:101F2000202020110E000000C02010F80000000743
:101F30000424243F240000F80888880808000019B9
:101F4000212020110E0000E0108888180000000FEA
:101F5000112020110E0000380808C83808000000C1
:101F6000003F000000000070880808887000001C16
:101F7000222121221C0000E010080810E0000000CF
:101F8000312222110F00000000C0C000000000003C
:101F9000003030000000000000C0C0000000000061
:101FA00080B0700000000000804020100800000198
:101FB000020408102000404040404040400004041B
:101FC00004040404040000081020408000000020E5
:101FD000100804020100007048080808F000000022
:101FE000003036010000C030C828E810E0000718B3
:101FF000272423140B000000C038E0000000203C20
:1020000023020227382008F8888888700000203FC3
:10201000202020110E00C0300808080838000718DA
:1020200020202010080008F808080810E000203FD1
:10203000202020100F0008F88888E8081000203FB2
:1020400020202320180008F88888E8081000203F86
:10205000200003000000C0300808083800000718FE
:102060002020221E020008F808000008F808203F7F
:10207000210101213F20000808F808080000002085
:10208000203F2020000000000808F8080800C08059
:1020900080807F00000008F888C028180800203FD2
:1020A00020012638200008F8080000000000203F2A
:1020B00020202020300008F8F800F8F80800203F21
:1020C000003F003F200008F830C00008F808203F1B
:1020D000200007183F00E01008080810E0000F106B
:1020E000202020100F0008F808080808F000203F02
:1020F000210101010000E01008080810E0000F189D
:10210000242438504F0008F8888888887000203FC1
:102110002000030C302000708808080838000038C0
:10212000202121221C00180808F8080818000000C7
:10213000203F2000000008F808000008F808001FF1
:10214000202020201F000878880000C838080000E0
:1021500007380E010000F80800F80008F800033CFA
:102160000700073C030008186880806818082030C2
:102170002C03032C30200838C800C83808000000A1
:10218000203F2000000010080808C8380800203848
:10219000262120201800000000FE0202020000009C
:1021A000007F40404000000C30C0000000000000F4
:1021B00000010638C00000020202FE0000000040DC
:1021C00040407F000000002010080408102000009C
:1021D00000000000000000000000000000008080FF
:1021E00080808080808000020408000000000000E1
:1021F00000000000000000008080808000000019C6
:10220000242222223F2008F8008080000000003FA6
:10221000112020110E000000008080800000000EC0
:10222000112020201100000000808088F800000E9E
:10223000112020103F200000808080800000001FBF
:10224000222222221300008080F088888818002033
:10225000203F202000000000808080808000006BF4
:1022600094949493600008F8008080800000203FE0
:10227000210000203F2000809898000000000020EE
:10228000203F20200000000000809898000000C03F
:102290008080807F000008F8000080808000203F60
:1022A00024022D302000000808F800000000002063
:1022B000203F202000008080808080808000203FA0
:1022C00020003F20003F0080800080800000002030
:1022D0003F2100203F200000808080800000001F00
:1022E000202020201F00808000808000000080FFD0
:1022F000A12020110E000000008080808000000ED0
:10230000112020A0FF80808080008080800020201D
:102310003F21200001000000808080808000003389
:10232000242424241900008080E080800000000024
:10233000001F202000008080000000808000001F1F
:10234000202020103F2080808000008080800001BD
:102350000E300806010080800080008080800F30F1
:102360000C030C300F000080800080808000002073
:10237000312E0E312000808080000080808080819E
:102380008E7018060100008080808080800000210F
:10239000302C2221300000000000807C020200006E
:1023A0000000003F404000000000FF00000000006F
:1023B0000000FF0000000002027C800000000040DE
:1023C000403F00000000008040408000008000008E
:1023D0000000000101000000000000000000002FCC
:1023E000000000000700070000147F147F14002481
:1023F0002A7F2A12002313086462003649552250AE
:1024000000000007000000001C22410000004122E3
:102410001C000014083E08140008083E08080000CC
:1024200000A06000000808080808000060600000C4
:10243000002010080402003E5149453E0000427F42
:102440004000004261514946002141454B3100188E
:1024500014127F10002745454539003C4A49493050
:10246000000171090503003649494936000649490A
:10247000291E000036360000000056360000000815
:1024800014224100001414141414000041221408F2
:10249000000201510906003E4955592E007C1211D7
:1024A000127C007F49494936003E41414122007F6C
:1024B0004141221C007F49494941007F0909090126
:1024C000003E4149497A007F0808087F0000417FAB
:1024D0004100002040413F01007F08142241007F5D
:1024E00040404040007F020C027F007F0408107FC4
:1024F000003E4141413E007F09090906003E41512D
:10250000215E007F091929460046494949310001E9
:10251000017F0101003F4040403F001F2040201F3D
:10252000003F4038403F0063140814630007087000
:10253000080700615149454300007F414100000206
:1025400004081020000041417F0000040201020441
:10255000004040404040000001020400002054546C
:102560005478007F484444380038444444200038BC
:102570004444487F00385454541800087E0901022E
:102580000018A4A4A47C007F080404780000447D03
:102590004000004080847D00007F1028440000003F
:1025A000417F4000007C04180478007C0804047813
:1025B00000384444443800FC2424241800182424FF
:1025C00018FC007C080404080048545454200004FB
:1025D0003F444020003C4040207C001C2040201C08
:1025E000003C4030403C004428102844001CA0A07F
:1025F000A07C004464544C440000087F410000006B
:10260000007F00000000417F080000080408100857
:10261000EFBC8C0000000000000000000000000083
:10262000000000000000583800000000000000001A
:1026300000000000E38082000000000000000000B5
:102640000000000000000000000018242418000012
:102650000000000000000000E4BDA000008060F861
:10266000074020180F08C80808281800010000FFBC
:1026700000100C0340807F0001061800E5A5BD0096
:102680001010F01F10F000808282E2928A86800093
:10269000402215081661000040807F000000000005
:1026A000E4B89600202020FE2020FF202020FF20DC
:1026B000202020000000007F404047444444474021
:1026C00040400000E7958C00000000FE929292FED0
:1026D000929292FE0000000008080484621E01002D
:1026E00001FE02040408080000000000FF010101CF
:1026F0003109090909897101010101FFFF80808009
:102700008080809681808080808080FF0000000033
:1027100000000000000000000000000000000000B9
:1027200000000000000000000000000000000000A9
:102730000000000000000000000000000000000099
:102740000000000000000000000000000000000089
:102750000000000000000000000000000000000079
:102760000000000000000000000000000000000069
:102770000000000000000000000000000000000059
:102780000000000000000000000000000000000049
:102790000000000000000000000000000000000039
:1027A0000000000000000000000000000000000029
:1027B0000000000000000000000000000000000019
:1027C0000000000000000000000000000000000009
:1027D00000000000000000000000000000000000F9
:1027E00000000000000000000000000000000000E9
:1027F00000000000000000000000000000000000D9
:1028000000000000000000000000000000000000C8
:10281000000000C0E0A08080808080000080808078
:10282000808080800000000000000080C0C0400068
:1028300000000000C0C00000008080000000000018
:102840000000C0C00000000000000000E0E0E00068
:1028500000000000000000000000E0C0000000C018
:10286000C0C0C0C0C0C0C0C0C0C0000000000000E8
:102870000000E0E000000080808080808080808018
:102880008080808000000000000000000000000048
:10289000181A0B89C9F97F7F49C9890800FFFFC150
:1028A000C1C1FFFF0000000018DCDE4B4948484969
:1028B000CFCE08003F3F22232321393000000018EB
:1028C0001818FFFF1818000406E6E60606060606B6
:1028D000E6E62606000000181818FFFF1818180072
:1028E00000FFFF808000303E3FF1F000000000005C
:1028F0000CCCFFFF8C8C0800F01010121EFC7C1614
:102900001311F1F0000000000000000000000000C2
:1029100000030301FFFE262626262726262626FE5E
:10292000FE0000000000000000FFFF2424242424F7
:10293000FFFF0000FFFF08080C0CC6C6800000C0A7
:10294000C0C0FF7F7030300000013F1E0000E0FE7D
:102950001F0100000000006060603F3F3018C0F0C1
:102960003E0F010187DEF078DF8780000000001C49
:102970000E03FFFF00030200FF33333333FF333115
:102980003131FFFF000000000000000000000000E7
:102990000000000007070101010101010101010719
:1029A0000700000000000000000303000000030314
:1029B00003030000010303030303030100000000FD
:1029C00000000000000003030303030303030303E9
:1029D00003030303030000000000000006030100DE
:1029E00000020703010100000101030301000000D0
:1029F00000000707000000000700000000030000BF
:102A000002020303000000000000000000000000BC
:102A100000000000000000000000000000000000B6
:102A200000000000000000000000000000000000A6
:102A30000000000000000000000000000000000096
:102A40000000000000000000000000000000000086
:102A50000000000000000000000000000000000076
:102A60000000000000000000000000000000000066
:102A70000000000000000000000000000000000056
:102A80000000000000000000000000000000000046
:102A90000000000000000000000000000000000036
:102AA0000000000000000000000000000000000026
:102AB0000000000000000000000000000000000016
:102AC0000000000000000000000000000000000006
:102AD00000000000000000000000000000000000F6
:102AE00000000000000000000000000000000000E6
:102AF00000000000000000000000000000000000D6
:102B000000000000000000000000000000000000C5
:102B100000000000000000000000000000000000B5
:102B200000000000000000000000000000000000A5
:102B30000000000000000000000000000000000095
:102B40000000000000000000000000000000000085
:102B50000000000000000000000000000000000075
:102B60000000000000000000000000000000000065
:102B70000000000000000000000000000000000055
:102B80000000000000000000000000000000000045
:102B90000000000000000000000000000000000035
:102BA0000000000000000000000000000000000025
:102BB0000000000000000000000000000000000015
:102BC0000000000000000000000000000000000005
:102BD00000000000000000000000000000000000F5
:102BE00000000000000000000000000000000000E5
:102BF00000000000000000000000000000000000D5
:102C000000000000000000000000000000000000C4
:102C100000000000E0E0E0606060606060606060B4
:102C200060606060606060606060606060000000C4
:102C300000000000000000000080C0E0783C38F890
:102C4000E080000000000000000000000000000024
:102C5000000010F0F00000000000000000001878F4
:102C6000786000000000000000000000000000008C
:102C700070F0F0000000606060E0E0606060606044
:102C800060E0E070000000000000000000000000B4
:102C90000000000000FFFF0000E6E646464646460C
:102CA000C6E606006060606060FFFF606060000074
:102CB0000040E0F070381C1E3737333030F0F0F051
:102CC000313337373E1C1C38387030000000003874
:102CD000181838FFFF181818000703E3E30303036D
:102CE000030303E3E3E323070300000000181818BD
:102CF00038FFFF1818180000E0FFFF808000003840
:102D00003F3FF3F0F0000000000000000000000072
:102D100000000000F8FF1F00004FCFCC080808C8D3
:102D2000EF4F00000E3E380000FFFF0000000000E3
:102D3000000000000C0C8CCCCCCC0C0C0CFFFFFF6A
:102D40000C0CCCCC8C8C0C0C0C0000000000000097
:102D5000008080FFFFC0C0E0600000037F7F600054
:102D600000C0FE7F0700000000000000008080809F
:102D7000C0FFFFC0E06080F0FF3F00030F3FF8E0BE
:102D8000E0FC3F0700000000000000000000000021
:102D90000000183E1F03000018181D0D0D0C0E0F2B
:102DA0000F04060200003070303F1F0000000000DA
:102DB0000000040C0E07070301000838383F1F1FEE
:102DC000000000010303070F0E04000000000007CD
:102DD00007070301010100001C1C1C0C0C0C0C0C4F
:102DE0000C0F0F0C0C0C1C1C1C0C00000007030328
:102DF000010111383C1E0F031038381C1C0E07034C
:102E000003070E1E1C3C180000000000000000001C
:102E100000000000000000000000000000000000B2
:102E200000000000000000000000000000000000A2
:102E30000000000000000000000000000000000092
:102E40000000000000000000000000000000000082
:102E50000000000000000000000000000000000072
:102E60000000000000000000000000000000000062
:102E70000000000000000000000000000000000052
:102E80000000000000000000000000000000000042
:102E90000000000000000000000000000000000032
:102EA0000000000000000000000000000000000022
:102EB0000000000000000000000000000000000012
:102EC0000000000000000000000000000000000002
:102ED00000000000000000000000000000000000F2
:102EE00000000000000000000000000000000000E2
:102EF00000000000000000000000000000000000D2
:102F000000000000000000000000000000000000C1
:102F100000000000000000000000000000000000B1
:102F200000000000000000000000000000000000A1
:102F30000000000000000000000000000000000091
:102F40000000000000000000000000000000000081
:102F50000000000000000000000000000000000071
:102F60000000000000000000000000000000000061
:102F70000000000000000000000000000000000051
:102F80000000000000000000000000000000000041
:102F90000000000000000000000000000000000031
:102FA0000000000000000000000000000000000021
:102FB0000000000000000000000000000000000011
:102FC0000000000000000000000000000000000001
:102FD00000000000000000000000000000000000F1
:102FE00000000000000000000000000000000000E1
:102FF00000000000000000000000000000000000D1
:1030000000000000000000000000000000000000C0
:1030100000C0C0C0C0C0C0C0C0C0C0C0C0C0C0C070
:10302000C0C0C0C0C0C0C0C0C0C0C0000000000060
:1030300000C0C0C0C0C0C0C0C0C0C0C0C0C0C0C050
:10304000C0C0C0C0C0C0C000000000000000000040
:1030500000000018F8F80000000080F0F070100088
:1030600000000000000000000000000080808000E0
:1030700000F0F00000000000E0F878000000000020
:103080000000000000000000000000000000000040
:1030900000000000F8F8F818181818181838F8F890
:1030A00000000000FFFFFF00000000000000000023
:1030B00000FFFFFF000000F8F8181818181818F89B
:1030C000F800000000FFFF00000000000000FFFF0C
:1030D00000000000FFFF0080E0F8BF8F0706060633
:1030E00006FEFE3E06060600000000C0FFFF0F0CB5
:1030F0000CFFFF0C0C303C1F07C3FF7F0303FFFFD7
:103100000303E3FF7F000000000000000000000058
:1031100000000000FFFFFF181818181818387F7FEC
:1031200000000000FFFFFF000000000000000000A2
:1031300000FFFFFF0000001F1F1818181818181FA5
:103140001F00000000FFFF000000000000003F3FE4
:1031500030303030FFFF00010100011F7EF0E0F051
:10316000FE1F0700000000000000007070303818DB
:103170001CFFFF0C062670781E0F83C0F87F1F010E
:103180000000FFFF00000000000000000000000041
:103190000000000001010100000000000000001814
:1031A000383838383F1F0F000000000000000000D2
:1031B000001F1F1F0606060606060606060606066A
:1031C00006060606061F1F000000000000000000A3
:1031D000000000383F3F0018381C1E0E0703010393
:1031E00007070E1E1C1C0C00000000000000000061
:1031F000207F7F000000081C1E0F070300001C1C1E
:103200001C0F0F0300000000000000000000000081
:1032100000000000000000000000000000000000AE
:10322000000000000000000000000000000000009E
:10323000000000000000000000000000000000008E
:10324000000000000000000000000000000000007E
:10325000000000000000000000000000000000006E
:10326000000000000000000000000000000000005E
:10327000000000000000000000000000000000004E
:10328000000000000000000000000000000000003E
:10329000000000000000000000000000000000002E
:1032A000000000000000000000000000000000001E
:1032B000000000000000000000000000000000000E
:1032C00000000000000000000000000000000000FE
:1032D00000000000000000000000000000000000EE
:1032E00000000000000000000000000000000000DE
:1032F00000000000000000000000000000000000CE
:1033000000000000000000000000000000000000BD
:1033100000000000000000000000000000000000AD
:10332000000000000000000000000000000000009D
:10333000000000000000000000000000000000008D
:10334000000000000000000000000000000000007D
:10335000000000000000000000000000000000006D
:10336000000000000000000000000000000000005D
:10337000000000000000000000000000000000004D
:10338000000000000000000000000000000000003D
:10339000000000000000000000000000000000002D
:1033A000000000000000000000000000000000001D
:1033B000000000000000000000000000000000000D
:1033C00000000000000000000000000000000000FD
:1033D00000000000000000000000000000000000ED
:1033E00000000000000000000000000000000000DD
:1033F00000000000000000000000000000000000CD
:1034000000000000000000000000000000000000BC
:1034100000808080808080808080E0F8F8988080C4
:10342000808080808080808080808000000000001C
:1034300000C0C0C0C0C0C0C0C0C0C0F8F8F8C0C0A4
:10344000C0C0C0C0C0C0C0C000000000000000007C
:1034500000F0F00000000000000000001878786024
:10346000000000000000000000000000000070F0FC
:10347000F0000000606060E0E0606060606060E05C
:10348000E0600000000000000000000000000000FC
:10349000000101010181E1F1FDFF373131313131AD
:1034A00031313131F1F1F101010101000000000081
:1034B000000707C0CCCCCCCCCCCCCCFEFEFECCCC18
:1034C000CCCCCCCCC00007070000000000181818B6
:1034D00038FFFF181818000303E3E3030303030393
:1034E00003E3E3E32303030000000018181838FF88
:1034F000FF1818180000E0FFFF80800000383F3FF1
:10350000F3F0F000000000000000000000000000E8
:1035100000000C0E070301FFFFFF464646464646E5
:1035200046464646FFFFFF00000000000000000C7A
:103530000C0C0C0CCCCCCCCCCCCCCCFFFFFFCCCC32
:10354000CCCCCCCCCC0C0C0C0C00000000000080CF
:1035500080FFFFC0C0E0600000037F7F600000C00C
:10356000FE7F07000000000000C0C0808080C0FF18
:10357000FFC0E06080F0FF3F00030F3FF8E0E0FC99
:103580003F070000000000000000000000000000F5
:10359000000000000000003F3F1F0000000000008E
:1035A000000838381F1F0F00000000000000000056
:1035B000000000003F3F080808080808080808083D
:1035C00008083F3F3F000000000000000007070719
:1035D0000301010100001C1C1C0C0C0C0C0C0C0F3A
:1035E0000F0C0C0C1C1C1C0C00000003030301013D
:1035F00011383C1E0F031038381C1C0E070303073C
:103600000E1E1C3C1800000000000000000000001E
:1036100000000000000000000000000000000000AA
:10362000000000000000000000000000000000009A
:10363000000000000000000000000000000000008A
:10364000000000000000000000000000000000007A
:10365000000000000000000000000000000000006A
:10366000000000000000000000000000000000005A
:10367000000000000000000000000000000000004A
:10368000000000000000000000000000000000003A
:10369000000000000000000000000000000000002A
:1036A000000000000000000000000000000000001A
:1036B000000000000000000000000000000000000A
:1036C00000000000000000000000000000000000FA
:1036D00000000000000000000000000000000000EA
:1036E00000000000000000000000000000000000DA
:1036F00000000000000000000000000000000000CA
:1037000000000000000000000000000000000000B9
:1037100000000000000000000000000000000000A9
:103720000000000000000000000000000000000099
:103730000000000000000000000000000000000089
:103740000000000000000000000000000000000079
:103750000000000000000000000000000000000069
:103760000000000000000000000000000000000059
:103770000000000000000000000000000000000049
:103780000000000000000000000000000000000039
:103790000000000000000000000000000000000029
:1037A0000000000000000000000000000000000019
:1037B0000000000000000000000000000000000009
:1037C00000000000000000000000000000000000F9
:1037D00000000000000000000000000000000000E9
:1037E00000000000000000000000000000000000D9
:1037F00000000000000000000000000000000000C9
:1038000000000000000000000000000000000000B8
:10381000000000008080808080F8F8F88080808040
:103820008080808080F8F8808080808000000000A8
:103830000000000000C0F8F83000008080000000A8
:1038400000F8F80000000000000000000000000088
:10385000000000F0F00000000000000000001878F8
:103860007860000000000000000000000000000080
:1038700000F0F0000000606060E0E06060606060A8
:1038800060E0E060000000000000000000000000B8
:1038900000000000010101010101FFFF19191919C0
:1038A0001919191919FFFF01010101010000000098
:1038B00080C0F0FC7FFFFF00C0C0C0FFFF70703011
:1038C00030FFFF1C1C0C0EFEFE7F000000000018E5
:1038D000181818FFFF181818000303E3E303030385
:1038E000030303E3E3E323030300000000181818B5
:1038F00018FFFF1818180000E0FFFF808000003854
:103900003F3FF3F0F0000000000000000000000066
:10391000000000606060606060607F7F636363637D
:1039200063636363637F7F6060606060600000006A
:103930000001010000FFFF00010000FFFF00000088
:1039400000FFFFC00838381F1F0000000000000003
:10395000008080FFFFC0C0E0600000037F7F600048
:1039600000C0FE7F07000000000000000080808093
:10397000C0FFFFC0E06080F0FF3F00030F3FF8E0B2
:10398000E0FC3F0700000000000000000000000015
:103990000000000000303038181C0E070706000039
:1039A0000000000207060E0C1C3818000000000082
:1039B00000000000303F3F000000000F1F1C1C18DB
:1039C000181818181818181C1E0F070000000007F8
:1039D00007070301010100001C1C1C0C0C0C0C0C43
:1039E0000C0F0F0C0C0C1C1C1C0C0000000703031C
:1039F000010111383C1E0F031038381C1C0E070340
:103A000003070E1E1C3C1800000000000000000010
:103A100000000000000000000000000000000000A6
:103A20000000000000000000000000000000000096
:103A30000000000000000000000000000000000086
:103A40000000000000000000000000000000000076
:103A50000000000000000000000000000000000066
:103A60000000000000000000000000000000000056
:103A70000000000000000000000000000000000046
:103A80000000000000000000000000000000000036
:103A90000000000000000000000000000000000026
:103AA0000000000000000000000000000000000016
:103AB0000000000000000000000000000000000006
:103AC00000000000000000000000000000000000F6
:103AD00000000000000000000000000000000000E6
:103AE00000000000000000000000000000000000D6
:103AF00000000000000000000000000000000000C6
:103B00000000000000000000000000002C3B000846
:103B1000000000202800000028010008543B000895
:103B200028000020600A0000440100080000000096
:103B3000010203040102030406070809020406083F
:103B40000000000001000000010000000000000073
:043B50000000000071
:04000005080000ED02
:00000001FF
